{
  "contractName": "Register",
  "abi": [
    {
      "anonymous": false,
      "inputs": [
        {
          "indexed": false,
          "internalType": "string",
          "name": "lastname",
          "type": "string"
        },
        {
          "indexed": false,
          "internalType": "string",
          "name": "firstname",
          "type": "string"
        },
        {
          "indexed": true,
          "internalType": "address",
          "name": "from",
          "type": "address"
        },
        {
          "indexed": true,
          "internalType": "uint256",
          "name": "userId",
          "type": "uint256"
        }
      ],
      "name": "NewProfile",
      "type": "event"
    },
    {
      "constant": true,
      "inputs": [
        {
          "internalType": "address",
          "name": "",
          "type": "address"
        }
      ],
      "name": "ProfileIds",
      "outputs": [
        {
          "internalType": "uint256",
          "name": "",
          "type": "uint256"
        }
      ],
      "payable": false,
      "stateMutability": "view",
      "type": "function"
    },
    {
      "constant": true,
      "inputs": [
        {
          "internalType": "address",
          "name": "",
          "type": "address"
        }
      ],
      "name": "Profiles",
      "outputs": [
        {
          "internalType": "string",
          "name": "lastname",
          "type": "string"
        },
        {
          "internalType": "string",
          "name": "firstname",
          "type": "string"
        },
        {
          "internalType": "uint256",
          "name": "userId",
          "type": "uint256"
        }
      ],
      "payable": false,
      "stateMutability": "view",
      "type": "function"
    },
    {
      "constant": true,
      "inputs": [],
      "name": "REGISTRATION_FEE",
      "outputs": [
        {
          "internalType": "uint256",
          "name": "",
          "type": "uint256"
        }
      ],
      "payable": false,
      "stateMutability": "view",
      "type": "function"
    },
    {
      "constant": true,
      "inputs": [],
      "name": "profileId",
      "outputs": [
        {
          "internalType": "uint256",
          "name": "",
          "type": "uint256"
        }
      ],
      "payable": false,
      "stateMutability": "view",
      "type": "function"
    },
    {
      "constant": false,
      "inputs": [
        {
          "internalType": "string",
          "name": "lastname",
          "type": "string"
        },
        {
          "internalType": "string",
          "name": "firstname",
          "type": "string"
        }
      ],
      "name": "createProfile",
      "outputs": [],
      "payable": true,
      "stateMutability": "payable",
      "type": "function"
    },
    {
      "constant": true,
      "inputs": [
        {
          "internalType": "address",
          "name": "user",
          "type": "address"
        }
      ],
      "name": "getProfile",
      "outputs": [
        {
          "components": [
            {
              "internalType": "string",
              "name": "lastname",
              "type": "string"
            },
            {
              "internalType": "string",
              "name": "firstname",
              "type": "string"
            },
            {
              "internalType": "uint256",
              "name": "userId",
              "type": "uint256"
            }
          ],
          "internalType": "struct Register.Profile",
          "name": "",
          "type": "tuple"
        }
      ],
      "payable": false,
      "stateMutability": "view",
      "type": "function"
    }
  ],
  "bytecode": "0x6080604052662386f26fc1000060025534801561001b57600080fd5b50610cf68061002b6000396000f3fe6080604052600436106100555760003560e01c806308386eba1461005a5780630f53a470146100855780633f15df73146100c257806345ffb23c146100ff57806364b4f7511461013e578063ba1feb8a14610169575b600080fd5b34801561006657600080fd5b5061006f610185565b60405161007c9190610bc5565b60405180910390f35b34801561009157600080fd5b506100ac60048036036100a7919081019061088b565b61018b565b6040516100b99190610ba3565b60405180910390f35b3480156100ce57600080fd5b506100e960048036036100e4919081019061088b565b61033d565b6040516100f69190610bc5565b60405180910390f35b34801561010b57600080fd5b506101266004803603610121919081019061088b565b610355565b60405161013593929190610b1e565b60405180910390f35b34801561014a57600080fd5b506101536104af565b6040516101609190610bc5565b60405180910390f35b610183600480360361017e91908101906108b4565b6104b5565b005b60035481565b610193610766565b61019b610766565b6000808473ffffffffffffffffffffffffffffffffffffffff1673ffffffffffffffffffffffffffffffffffffffff168152602001908152602001600020604051806060016040529081600082018054600181600116156101000203166002900480601f01602080910402602001604051908101604052809291908181526020018280546001816001161561010002031660029004801561027d5780601f106102525761010080835404028352916020019161027d565b820191906000526020600020905b81548152906001019060200180831161026057829003601f168201915b50505050508152602001600182018054600181600116156101000203166002900480601f01602080910402602001604051908101604052809291908181526020018280546001816001161561010002031660029004801561031f5780601f106102f45761010080835404028352916020019161031f565b820191906000526020600020905b81548152906001019060200180831161030257829003601f168201915b50505050508152602001600282015481525050905080915050919050565b60016020528060005260406000206000915090505481565b6000602052806000526040600020600091509050806000018054600181600116156101000203166002900480601f0160208091040260200160405190810160405280929190818152602001828054600181600116156101000203166002900480156104015780601f106103d657610100808354040283529160200191610401565b820191906000526020600020905b8154815290600101906020018083116103e457829003601f168201915b505050505090806001018054600181600116156101000203166002900480601f01602080910402602001604051908101604052809291908181526020018280546001816001161561010002031660029004801561049f5780601f106104745761010080835404028352916020019161049f565b820191906000526020600020905b81548152906001019060200180831161048257829003601f168201915b5050505050908060020154905083565b60025481565b6000600160003373ffffffffffffffffffffffffffffffffffffffff1673ffffffffffffffffffffffffffffffffffffffff1681526020019081526020016000205414610537576040517f08c379a000000000000000000000000000000000000000000000000000000000815260040161052e90610b83565b60405180910390fd5b600254341461057b576040517f08c379a000000000000000000000000000000000000000000000000000000000815260040161057290610b63565b60405180910390fd5b600360008154809291906001019190505550610595610766565b604051806060016040528086868080601f016020809104026020016040519081016040528093929190818152602001838380828437600081840152601f19601f82011690508083019250505050505050815260200184848080601f016020809104026020016040519081016040528093929190818152602001838380828437600081840152601f19601f8201169050808301925050505050505081526020016003548152509050806000803373ffffffffffffffffffffffffffffffffffffffff1673ffffffffffffffffffffffffffffffffffffffff1681526020019081526020016000206000820151816000019080519060200190610697929190610787565b5060208201518160010190805190602001906106b4929190610787565b5060408201518160020155905050600354600160003373ffffffffffffffffffffffffffffffffffffffff1673ffffffffffffffffffffffffffffffffffffffff168152602001908152602001600020819055506003543373ffffffffffffffffffffffffffffffffffffffff167fc05a310d597a89aeff52dcd7a52ef66621d8b85df8b7d3082415f1603402820d878787876040516107579493929190610ae3565b60405180910390a35050505050565b60405180606001604052806060815260200160608152602001600081525090565b828054600181600116156101000203166002900490600052602060002090601f016020900481019282601f106107c857805160ff19168380011785556107f6565b828001600101855582156107f6579182015b828111156107f55782518255916020019190600101906107da565b5b5090506108039190610807565b5090565b61082991905b8082111561082557600081600090555060010161080d565b5090565b90565b60008135905061083b81610c9c565b92915050565b60008083601f84011261085357600080fd5b8235905067ffffffffffffffff81111561086c57600080fd5b60208301915083600182028301111561088457600080fd5b9250929050565b60006020828403121561089d57600080fd5b60006108ab8482850161082c565b91505092915050565b600080600080604085870312156108ca57600080fd5b600085013567ffffffffffffffff8111156108e457600080fd5b6108f087828801610841565b9450945050602085013567ffffffffffffffff81111561090f57600080fd5b61091b87828801610841565b925092505092959194509250565b60006109358385610bfc565b9350610942838584610c49565b61094b83610c8b565b840190509392505050565b600061096182610be0565b61096b8185610beb565b935061097b818560208601610c58565b61098481610c8b565b840191505092915050565b600061099a82610be0565b6109a48185610bfc565b93506109b4818560208601610c58565b6109bd81610c8b565b840191505092915050565b60006109d5602283610bfc565b91507f596f75206d7573742073656e6420302e30312045544820746f2072656769737460008301527f65720000000000000000000000000000000000000000000000000000000000006020830152604082019050919050565b6000610a3b601683610bfc565b91507f50726f66696c6520686173206265656e206164646564000000000000000000006000830152602082019050919050565b60006060830160008301518482036000860152610a8b8282610956565b91505060208301518482036020860152610aa58282610956565b9150506040830151610aba6040860182610ac5565b508091505092915050565b610ace81610c3f565b82525050565b610add81610c3f565b82525050565b60006040820190508181036000830152610afe818688610929565b90508181036020830152610b13818486610929565b905095945050505050565b60006060820190508181036000830152610b38818661098f565b90508181036020830152610b4c818561098f565b9050610b5b6040830184610ad4565b949350505050565b60006020820190508181036000830152610b7c816109c8565b9050919050565b60006020820190508181036000830152610b9c81610a2e565b9050919050565b60006020820190508181036000830152610bbd8184610a6e565b905092915050565b6000602082019050610bda6000830184610ad4565b92915050565b600081519050919050565b600082825260208201905092915050565b600082825260208201905092915050565b6000610c1882610c1f565b9050919050565b600073ffffffffffffffffffffffffffffffffffffffff82169050919050565b6000819050919050565b82818337600083830152505050565b60005b83811015610c76578082015181840152602081019050610c5b565b83811115610c85576000848401525b50505050565b6000601f19601f8301169050919050565b610ca581610c0d565b8114610cb057600080fd5b5056fea365627a7a723158204f76213101821383188569c7ec89a05b7ac4f864b755b8c637fe3fdf624837976c6578706572696d656e74616cf564736f6c63430005100040",
  "source": "/**\r\n *Submitted for verification at Etherscan.io on 2021-08-03\r\n*/\r\n\r\npragma solidity ^0.5.16;\r\n\r\npragma experimental ABIEncoderV2;\r\n\r\ncontract Register {\r\n    event NewProfile(\r\n        string lastname,\r\n        string firstname,\r\n        address indexed from,\r\n        uint256 indexed userId\r\n    );\r\n    struct Profile {\r\n        string lastname;\r\n        string firstname;\r\n        uint256 userId;\r\n    }\r\n    mapping(address => Profile) public Profiles;\r\n    mapping(address => uint256) public ProfileIds;\r\n    uint256 public REGISTRATION_FEE = 0.01 ether;\r\n    uint256 public profileId;\r\n\r\n    function createProfile (string calldata lastname, string calldata firstname) external payable {\r\n        require(ProfileIds[msg.sender] == 0, \"Profile has been added\");\r\n        require(msg.value == REGISTRATION_FEE, \"You must send 0.01 ETH to register\");\r\n        profileId++;\r\n        Profile memory profile = Profile(lastname, firstname, profileId);\r\n        Profiles[msg.sender] = profile;\r\n        ProfileIds[msg.sender] = profileId;\r\n        emit NewProfile(lastname, firstname, msg.sender, profileId);\r\n    }\r\n    function getProfile(address user) external view returns(Profile memory) {\r\n        Profile memory profile = Profiles[user];\r\n        return profile;\r\n    }\r\n}",
  "sourcePath": "C:\\Users\\HP\\Documents\\my tut\\blockchain\\src\\contracts\\Registration.sol",
  "compiler": {
    "name": "solc",
    "version": "0.5.16+commit.9c3226ce.Emscripten.clang"
  },
  "schemaVersion": "3.4.3",
  "updatedAt": "2021-09-20T10:52:46.628Z",
  "devdoc": {
    "methods": {}
  },
  "userdoc": {
    "methods": {}
  }
}